:020000040800F2
:100000008006002089010008910100089301000882
:100010009501000897010008990100080000000000
:100020000000000000000000000000009B0100082C
:100030009D010008000000009F010008A1010008C8
:10004000A3010008A3010008A3010008A301000800
:10005000A3010008A3010008A3010008A3010008F0
:10006000A3010008A3010008A3010008A3010008E0
:10007000A3010008A3010008A3010008A3010008D0
:10008000A3010008A3010008A3010008A3010008C0
:10009000A3010008A3010008A3010008A3010008B0
:1000A000A3010008A3010008A3010008A3010008A0
:1000B000A3010008A3010008A3010008A301000890
:1000C000A3010008A3010008A3010008A301000880
:1000D000A3010008A3010008A3010008A301000870
:1000E000A3010008A3010008A301000800F002F822
:1000F00000F03AF80AA090E8000C82448344AAF188
:100100000107DA4501D100F02FF8AFF2090EBAE885
:100110000F0013F0010F18BFFB1A43F0010318473B
:10012000DC020000FC020000103A24BF78C878C14D
:10013000FAD8520724BF30C830C144BF04680C60ED
:10014000704700000023002400250026103A28BF35
:1001500078C1FBD8520728BF30C148BF0B60704739
:100160001FB51FBD10B510BD00F031F81146FFF7E7
:10017000F7FF00F017F900F04FF803B4FFF7F2FFB4
:1001800003BC00F057F800000948804709480047C1
:10019000FEE7FEE7FEE7FEE7FEE7FEE7FEE7FEE737
:1001A000FEE7FEE704480549054A064B7047000094
:1001B0000D030008ED0000088000002080060020EC
:1001C000800200208002002070477047704775460B
:1001D00000F02CF8AE4605006946534620F00700B3
:1001E000854618B020B5FFF7DDFFBDE820404FF091
:1001F00000064FF000074FF000084FF0000BAC4630
:10020000ACE8C009ACE8C009ACE8C009ACE8C0097A
:1002100021F007018D46704710B50446AFF300800A
:100220002046BDE81040FFF7A8BF00000048704717
:100230002000002001491820ABBEFEE72600020086
:100240007047000080B500F001F880BD82B041F237
:1002500004000021C4F202000191009150F8041C36
:1002600041F4803140F8041C50F8041C01F40031C2
:100270000091019901310191009919B90199B1F5E4
:10028000A06FF1D150F8041C890354BF0021012153
:1002900000910099012936D142F20001C4F2020115
:1002A0000A6842F010020A600A6822F007020A6037
:1002B0000A6842F002020A60016801600168016098
:1002C000016841F480610160016821F47C110160E2
:1002D000016841F4E811016050F8041C41F080719C
:1002E00040F8041C50F8041C8901FBD5016821F07A
:1002F00003010160016841F002010160016801F041
:100300000C010829FAD102B07047000080B541F213
:100310000000C4F202000168002241F00101016006
:100320004168CFF6FF021140416001684FF6FF724D
:10033000CFF6F66211400160016821F4802101606E
:10034000416821F4FE0141604FF41F018160FFF715
:1003500079FF4EF60850CEF200004FF000610160C8
:1003600080BD000080B581B04FF0000C41F26F7E7F
:1003700041F270730021CDF800C003E001318AB270
:1003800082420CD8CDF800C0009A7245F6D800BF62
:10039000009A01320092009A9A42F9D3EEE701B036
:1003A00080BD000041F21800C4F20200016840F66E
:1003B0000C0441F0FC01C4F2010401604FF0333041
:1003C00044F80C0C44F8080C40F20000C2F20000A3
:1003D000A0F10208002600BF1027454635F8020F9D
:1003E00020604FF47A70FFF7BDFF4FF47A702660FB
:1003F000FFF7B8FF013FF1D1EEE700001C04000851
:100400000000002020000000280100083C04000833
:1004100020000020600600004401000801000200E6
:1004200004000800100020004000800000010002CD
:0C043000000400080010002000400080C4
:040000050800018965
:00000001FF
